:0300000002007C7F
:0C007C00787FE4F6D8FD7581070200488B
:040003007FF47E0107
:10000700BE031FBFE81CE4FBFA7C007D05ED1D70F5
:10001700011CED4C70F70BBB00010ABA4CEBBB910E
:10002700E822EF1FAA0670011E4A60147C007D7348
:10003700D3ED9400EC940040E9ED1D70F31C80F0C3
:010047002296
:1000480075A0FE12000375A0FD12000375A0FB1237
:10005800000375A0F712000375A0EF12000375A046
:10006800DF12000375A0BF12000375A07F12000302
:04007800E4FEFF2281
:00000001FF
